:020000040000FA
:100000008A0102288B018316031300309F0083129C
:10001000031307309F008316FF3085008601061505
:1000200083128501A001A101A301A201432183162E
:1000300000309B001C141A088312A2002208003A08
:1000400003193629A203F420831601309B001C14E7
:100050001A088312A3003A21483022224930222272
:1000600022222C22A31D3628392084205721A020AB
:1000700032280508A000211E4128201A080021125C
:100080000800201E08002116A20A03112208053AC2
:100090000319A2014C2008002208003A0319612824
:1000A0002208013A031968282208023A03196F2826
:1000B0002208033A031976282208043A03197D28F6
:1000C000080083120313061386128613C028080043
:1000D00083120313061786128613C02808008312A2
:1000E0000313061386168613C02808008312031311
:1000F000061786168613C0280800831203130613FA
:1001000086128617C02808000508A000A11D8C28AB
:10011000A0190800A1110800A01D0800A115231EA8
:100120009428231A9A28080083120313061623160C
:10013000D62808008312031306122312D6280800BB
:100140000508A000211DA828201908002111080079
:10015000201D08002115A31DB028A319B7280800E9
:10016000831203138615A315F4203A210800831285
:1001700003138611A31106138612061286130800B4
:10018000831203132208831603139A0000309B0086
:1001900083161C158B138B1BCA2855309D00AA3063
:1001A0009D009C148B178312031308008312031302
:1001B0002308831603139A0001309B0083161C1535
:1001C0008B138B1BE02855309D00AA309D009C149A
:1001D0008B17831203130800831600309B001C1436
:1001E0001A088312A20008002208003A03190929FC
:1001F0002208013A031912292208023A03191B297D
:100200002208033A031924292208043A03192D2944
:10021000080083120313000006130000861200007A
:1002200086130800831203130000061700008612CD
:100230000000861308008312031300000613000059
:1002400086160000861308008312031300000617A9
:1002500000008616000086130800831203130000B6
:100260000613000086120000861708000430A20062
:1002700023280800231E4129231A3F2908000616B7
:10028000080006120800831603130611861419309D
:10029000990098161812181583120313981718133B
:1002A0001816A601A701A8018312031308008312E0
:1002B00003138C1E0800831203139818192A831243
:1002C000031318191E2A831203131A08A400A31D6E
:1002D000822903112408303A031997292408313A56
:1002E0000319A0292408323A0319A9292408333A0A
:1002F0000319B2292408343A0319BB292408623AA5
:100300000319C4292408703A0319C9292408733A27
:100310000319DA292408693A0319D22924084F3A23
:100320000319CE2924086F3A0319D0290800831233
:1003300003130613861286130030A200C02808009B
:10034000831203130617861286130130A200C028F9
:100350000800831203130613861686130230A200C8
:10036000C02808008312031306178616861303306D
:10037000A200C028080083120313061386128617F2
:100380000430A200C0280800231E9428231A9A28AB
:100390000800A31DB028A319B7280800B02808003A
:1003A000B7280800A20A03112208053A0319A2017E
:1003B0004C200800703022222C302222A31D303025
:1003C000A319313022222C302222693022222C30F3
:1003D00022222208003A0319FD292208013A0319B2
:1003E000002A2208023A0319032A2208033A0319B1
:1003F000062A2208043A0319092A303022220C2A3C
:10040000313022220C2A323022220C2A333022228E
:100410000C2A343022220C2A2C3022226230222252
:100420002C302222231E3030231A313022222C225B
:1004300008008312031318121816080083120313FE
:100440001A080800831203130C1E242A83120313B4
:1004500099008312031308000A3022220D30222251
:06046000831203130800E3
:04046600003400342A
:02400E00303F41
:06420000000000000000B8
:00000001FF
